:200000007CC6C6C6C6C67C001838181818183C003C660C1830607E007CC6063C06C67C007E
:20002000CCCCCCFE0C0C0C00FEC0C07C06C67C007CC6C0FCC6C67C00FE060C183060C0007A
:200040007CC6C67CC6C67C007CC6C67E06C67C000018180018180000187E587E1A7E1800CA
:2000600000000000000000003C660C1818001800C0C0C0C0C0C0FE00FCC6C6FCC0C0C00048
:200080000018187E18180000C6C6C6D6FEEEC600FEC0C0F8C0C0FE00FCC6C6FCD8CCC600C6
:2000A0007E18181818181800C6C6C6C6C6C67C003C18181818183C007CC6C6C6C6C67C004C
:2000C0007CC6C6C6DECC76007CC6C07C06C67C00FCC6C6C6C6C6FC00FEC0C0F8C0C0C000E0
:2000E0007CC6C0C0CEC67E00C6C6C6FEC6C6C6000606060606C67C00C6CCD8F0D8CCC60066
:20010000386CC6C6FEC6C6007E060C1830607E00C6C66C386CC6C6007CC6C0C0C0C67C0083
:20012000C6C6C6C6C66C3800FCC6C6FCC6C6FC00C6EEFED6C6C6C6000000000000383800E7
:200140000000007E0000000000663C183C6600000018007E0018000000007C007C0000001F
:200160006666663C18181800C6E6F6FEDECEC60003060C183060C000FFFFFFFFFFFFFF0041
:20018000CEDBDBDBDBDBCE0000003C7E7E7E3C001C1C181E18181C001C1C181E18342600F0
:2001A00038381878182C6400383818781818380000180CFE0C180000183C7EFFFF181800E9
:2001C00003070F1F3F7FFF00C0E0F0F8FCFEFF00383812FEB8286C00C06030180C06030060
:2001E00000000C0808FF7E00000363FFFF1808000000001038FF7E00000000066EFF7E002C
:00000001FF

