:2000000044C304090093041A840CE4B9B83FF0D20C34762717000000005614B820B000F25D
:2000200023B0012394E3D39BC62EF04302A014EC2320B9E491363EB9849191913642F0439B
:2000400004A014E73476341CB8A3230890B810BB2ABC68BE0EBD1574EABE0EBD1774EABE68
:200060000EBD1674EABE0EBD2374EABE0EBD1274EABE0EBD0A74EABB62B920F15292BE0EB6
:20008000BD2C74EABE0EBD1274EABE0EBD1974EA849EBE0EBD2D74EABE0EBD1774EAB92013
:2000A000F13712AEBB7ABC38BE0EBD2374EAB920F13732BEBB7ABC98BE0EBD1974EAB840B3
:2000C000BB3ABC38BE0EBD1974EABE0EBD1974EABE0EBD0C74EABE0EBD14B920F112E1BD2D
:2000E0002074EABB42BE0EBD2C74EABE0EBD0A74EABE0EBD2DF112FABD0F74EABE0EBD1902
:20010000F11205BD0E74EABB3ABC98BE0EBD1C74EABE0EBD2274EABE0EBD0C74EABE0EBDDD
:200120000EB920F13228BD1474EABB42BE0EBD1B74EABE0EBD0A74EABE0EBD0FF13241BDB5
:200140001974EABE0EBD15F1324CBD1A74EA3427BAF0B920F11259BAC83476EA593476345F
:200160001CB8A32314902301B909B8C09018E96CB909B8D09018E97423FFB8E090B8E9901C
:20018000B8C3235590189018902351B8C290B8C690B810BB42BC38BE06BD0F74EABE06BDD8
:2001A0001774EABE06BD2D74EABE06BD1C74EABB3EBCBABE02BD3374EABE08BD34BB5E7402
:2001C000EABE0EBD27BCB6BB4E74EA23F8BA14B82C9018EAD1B80023509018234A90182371
:2001E000389018182350901823529018233890181823809018234A90182338901818238096
:20020000901823529018233890B880231890182304901823C49018232E90182324901823AA
:20022000C490B888230090182300901823349018230D901823059018230490B8902300903B
:20024000182300901823AE90182369901823299018232E90B89823209018232090182338B8
:2002600090182325901823259018233990B840BB32BC68BE0CBD2474EABE0CBD1A74EABE3B
:200280000CBD1774EABE0CBD2074EABB3ABE0CBD1674EABE0CBD1274EABE0CBD0F74EABE82
:2002A0000CBD2374EABB32BC98BE06BD1774EABE06BD2C74EABE06BD1974EABE06BD2C7499
:2002C000EABB3ABE06BD1A74EABE06BD1974EABE06BD1274EABE06BD0274EA3427BAF0B9BE
:2002E00020F112E6BAC83476EAE614ECB920F152FDB8E923209036F6B88290E40123D0346A
:20030000A2B8012790189014E7341CBB40BCDCBE0C543AB83EB0402317B8A39023FFB8E028
:2003200090B8E9279017B909B8C09018E92AB909B8D09018E932B90627B880902310189033
:20034000E93EB802230C90B90627B8889023101890E94FB806232490B903231CB8909018B4
:20036000E95E27B90C9018E965B808237C901823109018231890181823F890189023F8B851
:200380003FBA2090C8EA83B87FBA2090C8EA8B3427B83C2301A0C8A0C8A027C8A0C8A0C8FF
:2003A000A0C82310A027C8A0B821B07018B08018B07018B078F5F50400FC37F2C6FCA3A999
:2003C0001CFCA3AA044B04448224210082202100821C210082182100FFFFFFFFFFFFFFFF25
:2003E000FFFFFFFFFFFFFFFFFFFFFFFFFFFFFFFFFFFFFFFFFFFFFFFFFFFFFFFFFFFFFFFF1D
:20040000E53476E5341CB80080ADB80480AEB80880A91880AAB83DF012233254925DB2706D
:20042000F50489B837B000C8F04301A023CCE534A2B83BF0F2393717A0FD37176903F37738
:200440007777924A530F17F5044C43F0B83CA018F0F5041CFEADB837B001F5042723D4E5E9
:2004600034A2B83BF037F26A17A01818F0F5041E23D4E534A2B83CF9F283F037F28917A0D5
:20048000F50489F0F2893717A0B83CF0AB69A9C8F01296FB69A9F9B80890B83BF06AAA37FC
:2004A000F2B4FA036AF2B4B836F04302A0BA0A23C8E534A2FAB809902304B8A290B800B98F
:2004C00021F1901819F190B80419F1901819F190B836F092D8F5241153EFA0B938F14753F0
:2004E0000FADB810BB40BC08BE08E574EAF1530FADBE08E574EABD28BE06E574EA19F1476A
:20050000530FADBE02E574EAF1530FADBE02E574EAB83AF007A0962CB03CB920F11221B0E2
:2005200032B83EB07BBCDCBE0CE534B0E53427B900E5748F95B821F0ADF24AFB37F257FD9D
:2005400003F737F2572304F5245FFBF257FD032CF25723D8F5245FFD6B6B6BB65F6B6BA08D
:2005600018F0ACF274FA37F281FC03FA37F2812303F52487FAF281FC0372F2812390F52437
:2005800087FC6A6AB6876AA0B901E5748F95B823F0AEF2A3FB37F2B0FE03F737F2B02304AC
:2005A000F524B8FBF2B0FE032CF2B023D8F524B8FE6B6B6BB6B86B6BA018F0ACF2CDFA376B
:2005C000F2DAFC03FA37F2DA2303F524E0FAF2DAFC0372F2DA2390F524E0FC6A6AB6E06AB5
:2005E000A0B836F032E9F5440EF04310A018F01812F318F017AA530FD30AC6FFF5440CFA07
:2006000053F00310AA53F0D3A0960CAAFAA0E514B0AFD301C61BFFD3029639FFE7E7AEB85B
:2006200036F053F34EA023D0E534A2B83BF0F235FFA0F54439FF3717A0E514ECB820F052AB
:20064000763676B836F05304C65F2320B9E891B984BA10EA53367691F053FBA0F54476F0AB
:200660005308C6762320B9E891B988BA10EA6D367691F053F7A0B835F017AAB90281DA53EE
:200680000FA018F03732A7B920F152A736A7C8F0530E7703DCA3A9232091F0530E7703E4B5
:2006A000A3A9232036A791B836F053FDA03712D0B920F152D036D0C8F0530E7703ECA3A999
:2006C000232091F0530E7703F4A3A9232036D091B836F053FEA0E514E7F50400E4E9EAE919
:2006E000E8E8E9E9C88B82888395818FE4E4E4E8E8E8E9E9C7C9CA808A908C8DFFFFFFFF94
:20070000FFFFFFFFFFFFFFFFFFFFFFFFFFFFFFFFFFFFFFFFFFFFFFFFFFFFFFFFFFFFFFFFF9
:20072000FFFFFFFFFFFFFFFFFFFFFFFFFFFFFFFFFFFFFFFFFFFFFFFFFFFFFFFFFFFFFFFFD9
:20074000FFFFFFFFFFFFFFFFFFFFFFFFFFFFFFFFFFFFFFFFFFFFFFFFFFFFFFFFFFFFFFFFB9
:20076000FFFFFFFFFFFFFFFFFFFFFFFFFFFFFFFFFFFFFFFFFFFFFFFFFFFFFFFFFFFFFFFF99
:20078000FFFFFFFFFFFFFFFFFFFFFFFFFFFFFFFFFFFFFFFFFFFFFFFFFFFFFFFFFFFFFFFF79
:2007A000FFFFFFFFFFFFFFFFFFFFFFFFFFFFFFFFFFFFFFFFFFFFFFFFFFFFFFFFFFFFFFFF59
:2007C000FFFFFFFFFFFFFFFFFFFFFFFFFFFFFFFFFFFFFFFFFFFFFFFFFFFFFFFFFFFFFFFF39
:2007E000FFFFFFFFFFFFFFFFFFFFFFFFFFFFFFFFFFFFFFFFFFFFFFFFFFFFFFFFFFFFFFFF19
:00000001FF

